S00E000054696E794F532E73726563D0
S11300000C9487000C94A4000C94A4000C94A400F9
S11300100C94A4000C94A4000C94A4000C94A400CC
S11300200C94A4000C94A4000C94A4000C94A400BC
S11300300C94A4000C94A4000C94A4000C94A400AC
S11300400C94A4000C94A4000C94A4000C94A4009C
S11300500C94A4000C94A4000C94A4000C94A4008C
S11300600C94A4000C94A4000C94A4000C94A4007C
S11300700C94A4000C94A4000C94A4000C94A4006C
S11300800C94A4000C94A4000C94A4000C94A4005C
S11300900C94A4000C94A4000C94A4000C94A4004C
S11300A00C94A4000C94A4000C94A4000C94A4003C
S11300B00C94A40008000000BE922449123EABAA8E
S11300C0AA2ABECDCCCC4C3E00000080BEABAAAA6E
S11300D0AA3E00000000BF000000803F00000000B6
S11300E000084178D3BB4387D1133D190E3CC3BDEF
S11300F04282AD2B3E68EC8276BED98FE1A93E4C9C
S113010080EFFFBE01C4FF7F3F0000000000112408
S11301101FBECFEFD8E0DEBFCDBF16E0A0E0B1E058
S1130120EAEEFFE002C005900D92A031B107D9F7C5
S113013026E0A0E1B6E001C01D92AA32B207E1F7C1
S11301400E94D5040C94F3070C94000007E004B952
S113015000E005B901B910E007E61093C50000936B
S1130160C40008E10093C10006E00093C20007E860
S113017000937A0000E400937C0000E000937B008D
S11301800EEF00937E000FEF00937F0008950E940E
S113019004010FEF0AB9009113060BB904E005B985
S11301A00E94D90000E005B90E94D9000E94FE0017
S11301B008950AEF1FEF1A95F1F70A95D9F70895F4
S11301C00E9404010FEF0AB9009113060BB906E06F
S11301D005B90E94D90000E005B90E94D9000E9427
S11301E0FE0008950E94040100E00AB945B80BB16D
S11301F00093130605B80E94FE00089502E00AB9B0
S113020008E10093C100089500E00093C10008953F
S11302100091C00007FF08950091C600F9CF009136
S1130220C00007FFFCCF0091C60000931506089597
S11302300091C00022E02A95F1F70091C6000093D6
S11302401E0608951091C00015FFFCCF00911506FD
S11302500093C60008950091C60000931506089502
S113026007EC10E010937B0000937A0000917A0071
S113027006FDFCCF009178000093260600917900DA
S1130280009314060895F999FECF20911D0610914C
S113029027060091120622BD11BD00BDFA9AF99AF3
S11302A00895F999FECF20911D061091270600E0CC
S11302B022BD11BDF89A00B5009315060895CF9399
S11302C0DF93EC019881992341F0219690931506D0
S11302D00E94220199919111F9CFDF91CF91089554
S11302E0CF93DF93EC019881992341F02196909369
S11302F013060E94E00099919111F9CFDF91CF91FB
S1130300089582EF95E00E945F018BEB95E00E94D7
S11303105F018CE795E00E945F01089586E895E00F
S11303200E945F010895FF920F931F93CF93DF9371
S1130330CDB7DEB760970FB6F894DEBF0FBECDBF62
S113034081E0809313060E94C70084E38093130620
S11303500E94C70088E0809313060E94C70082E0D1
S1130360809313060E94C70086E0809313060E94C0
S1130370C7008FE0809313060E94C70087E0E0E087
S1130380F1E0DE01119601900D928A95E1F7FE01EC
S1130390389689E0DF011D928A95E9F70F2EFCE17A
S11303A0FF2EF02DCE0101960E94700100E110E0B5
S11303B0F09213060E94C7000E94D9000E94D9003F
S11303C00E94D9000E94D9000E94D9000E94D9003D
S11303D00E94D9000E94D9000E94180180911E0633
S11303E0882319F00E948E0104C00150110901F7FD
S11303F0D9CF60960FB6F894DEBF0FBECDBFDF91A4
S1130400CF911F910F91FF9008958F929F92AF9279
S1130410BF92CF92DF92EF92FF921F93CF93DF931D
S11304200E9430016091140670E0762F6627809157
S11304302606680F711D7093290660932806072EFF
S1130440000C880B990B0E94F3056B017C0120E0E2
S113045030E44CE156E40E9427074B015C01A701FC
S1130460960160E070E080E894E40E94DC049B0163
S1130470AC01C501B4010E94490520E030E44CE11F
S113048056E40E9449050E94DF062CE53FEA43E951
S113049053E40E94270720E030EE46E755E40E942B
S11304A0DD049B01AC016CEB7BE68EE899E40E94D1
S11304B0490523E333E948E853E40E94DC0426E6D3
S11304C036E646EE5FE30E94270720E030E040E88E
S11304D05FE30E94DD0420E030E040E251E40E944A
S11304E027070E94BB05CB0168EE73E00E94BB079F
S11304F0EC01072E000C880B990B0E94F3050E9457
S11305002E0620E030E040E452E40E94DD040E9424
S1130510C205162FCE0164E670E00E94BB07EC0111
S1130520072E000C880B990B0E94F3050E942E06DF
S113053020E030E040E452E40E94DD040E94C20561
S1130540E62ECE016AE070E00E94BB07EC01072EA4
S1130550000C880B990B0E94F3050E942E0620E0E4
S113056030E040E452E40E94DD040E94C205F62E0D
S1130570BE01DD0F880B990B0E94F3050E942E0625
S113058020E030E040E452E40E94DD040E94C20511
S1130590103309F410E2E6E1F6E01083E182F2821E
S11305A08EE28383648387EA85831682BF018FE1A9
S11305B096E00E94E307892B91F080E191E00E948C
S11305C05F0186E196E00E945F018CE191E00E9468
S11305D05F0166E176E08FE196E00E94EC070E94FD
S11305E0D9000E94D9000E94D9000E94D9000E941B
S11305F02B0180911506883791F486E0E0E2F1E062
S1130600AFE1B6E001900D928A95E1F786E0E0E271
S1130610F1E0A6E1B6E001900D928A95E1F7DF9151
S1130620CF911F91FF90EF90DF90CF90BF90AF904C
S11306309F908F90089586E291E00E945F0110924E
S113064015060E940F01809115068823D1F380932B
S11306501D0689E691E00E945F01109215060E9432
S11306600F01809115068823D1F3809327068DEA24
S113067091E00E945F01109215060E940F01809183
S113068015068823D1F3809312060E9443018FEC50
S113069091E00E945F01089584EF91E00E945F0160
S11306A0109215060E940F01809115068823D1F33C
S11306B080931D0681E392E00E945F01109215066B
S11306C00E940F01809115068823D1F38093270699
S11306D00E9451010E9422018FEC91E00E945F016F
S11306E008958FE692E00E945F01109215060E9421
S11306F00F01809115068823D1F3823729F08737BB
S113070031F40E941B0308950E944C0308958DE563
S113071095E00E945F010E948E0108958093100667
S1130720909311068093C4009093C50008958EE8B9
S113073092E00E945F01109215060E940F018091C1
S113074015068823D1F38333E9F028F4813341F08B
S1130750823379F032C08433F1F0853329F12DC02E
S113076087E690E00E948E0381EE92E00E945F0192
S1130770089584E490E00E948E0387EF92E00E9443
S11307805F01089583E390E00E948E038DE093E07F
S11307900E945F01089582E290E00E948E0383E24A
S11307A093E00E945F01089589E190E00E948E0326
S11307B089E393E00E945F0108958DE595E00E942E
S11307C05F010E948E0108958FE493E00E945F010F
S11307D0109215060E940F01809115068823D1F30B
S11307E08733A9F028F4853341F0863359F02DC0BE
S11307F0883391F08933D1F028C08EE893E00E94C9
S11308005F01089585EA93E00E945F0108958CEBEF
S113081093E00E945F0108958091C20081608093FB
S1130820C20083ED93E00E945F0108958091C200AD
S113083081608093C2008091C10084608093C10074
S11308408AEE93E00E945F0108958DE595E00E9491
S11308505F010E948E01089581E094E00E945F018F
S1130860109215060E940F01809115068823D1F37A
S11308708E3629F08F3641F08536A9F40FC082E513
S113088094E00E945F0108958091C200816080938A
S1130890C20089E694E00E945F01089581E894E033
S11308A00E945F0108958DE595E00E945F010E941A
S11308B08E0108958AE994E00E945F011092150662
S11308C00E940F01809115068823D1F3813319F01A
S11308D0823331F00FC086ED94E00E945F010895E9
S11308E08091C20088608093C2008DEE94E00E94E3
S11308F05F0108958DE595E00E945F010E948E01DD
S1130900089584E095E00E945F01109215060E940C
S11309100F01809115068823D1F3843661F018F411
S1130920823631F011C0803749F0833751F00CC062
S11309300E94970308950E94E40308950E942C04E2
S113094008950E945A0408958DE595E00E945F0180
S11309500E948E01089586E895E00E945F0110923E
S113096015060E940F01809115068823D1F3853660
S113097079F018F4813649F011C08C3619F08537B6
S113098051F00CC00E94930108950E94050208953D
S11309900E94710308950E94810408958DE595E0F5
S11309A00E945F010E948E0108950E94A6000E9489
S11309B081010E94AB04FDCF5058BB27AA270E9497
S11309C0F4040C9485060E94770638F00E947E0693
S11309D020F039F49F3F19F426F40C9474060EF4B5
S11309E0E095E7FB0C944506E92F0E94960658F320
S11309F0BA17620773078407950720F079F4A6F500
S1130A000C94D0060EF4E0950B2EBA2FA02D0B01FA
S1130A10B90190010C01CA01A0011124FF27591B3F
S1130A2099F0593F50F4503E68F11A16F040A22F45
S1130A30232F342F4427585FF3CF469537952795B6
S1130A40A795F0405395C9F77EF41F16BA0B620BB5
S1130A50730B840BBAF09150A1F0FF0FBB1F661FFC
S1130A60771F881FC2F70EC0BA0F621F731F841F3F
S1130A7048F4879577956795B795F7959E3F08F065
S1130A80B0CF9395880F08F09927EE0F9795879527
S1130A9008950E945D050C9485060E947E0658F018
S1130AA00E94770640F029F45F3F29F00C94450634
S1130AB051110C94D1060C9474060E94960668F3A6
S1130AC09923B1F3552391F3951B550BBB27AA2703
S1130AD062177307840738F09F5F5F4F220F331F3D
S1130AE0441FAA1FA9F335D00E2E3AF0E0E832D005
S1130AF091505040E695001CCAF72BD0FE2F29D008
S1130B00660F771F881FBB1F261737074807AB07D9
S1130B10B0E809F0BB0B802DBF01FF2793585F4F4E
S1130B203AF09E3F510578F00C9445060C94D1069A
S1130B305F3FE4F3983ED4F3869577956795B79530
S1130B40F7959F5FC9F7880F911D9695879597F93B
S1130B500895E1E0660F771F881FBB1F62177307B4
S1130B608407BA0720F0621B730B840BBA0BEE1FC9
S1130B7088F7E09508950E94C2056894B1110C9419
S1130B80D10608950E949E0688F09F5798F0B92FC9
S1130B909927B751B0F0E1F0660F771F881F991FAE
S1130BA01AF0BA95C9F714C0B13091F00E94D0067A
S1130BB0B1E008950C94D006672F782F8827B85F8A
S1130BC039F0B93FCCF3869577956795B395D9F706
S1130BD03EF490958095709561957F4F8F4F9F4F10
S1130BE00895E89409C097FB3EF49095809570951C
S1130BF061957F4F8F4F9F4F9923A9F0F92F96E965
S1130C00BB279395F695879577956795B795F111D9
S1130C10F8CFFAF4BB0F11F460FF1BC06F5F7F4F76
S1130C208F4F9F4F16C0882311F096E911C0772388
S1130C3021F09EE8872F762F05C0662371F096E891
S1130C40862F70E060E02AF09A95660F771F881F60
S1130C50DAF7880F9695879597F908950E94B80654
S1130C6090F09F3748F4911116F00C94D10660E08F
S1130C7070E080E89FEB089526F41B16611D711D3A
S1130C80811D0C944B060C94660697F99F6780E8C7
S1130C9070E060E00895882371F4772321F0985080
S1130CA0872B762F07C0662311F499270DC0905126
S1130CB0862B70E060E02AF09A95660F771F881FF4
S1130CC0DAF7880F9695879597F908959F3F31F045
S1130CD0915020F4879577956795B795880F911D66
S1130CE09695879597F908959FEF80EC08950024D1
S1130CF00A941616170618060906089500240A947D
S1130D0012161306140605060895092E0394000C02
S1130D1011F4882352F0BB0F40F4BF2B11F460FF91
S1130D2004C06F5F7F4F8F4F9F4F089557FD9058BA
S1130D30440F551F59F05F3F71F04795880F97FB9B
S1130D40991F61F09F3F79F0879508951216130655
S1130D501406551FF2CF4695F1DF08C01616170684
S1130D601806991FF1CF86957105610508940895B9
S1130D700E949E06A0F0BEE7B91788F4BB279F38EF
S1130D8060F41616B11D672F782F8827985FF7CF68
S1130D90869577956795B11D93959639C8F308950F
S1130DA0E894BB2766277727CB0197F9089516F0B7
S1130DB00C9466060C94740668940C9445060E9480
S1130DC09E06A8F39923C1F3AEF3DF93CF931F9349
S1130DD00F93FF92C92FDD2788232AF02197660FEE
S1130DE0771F881FDAF720E030E040E85FEB9FE3ED
S1130DF0883920F0803E38F021968F770E94DD04F8
S1130E00E4EBF0E004C00E94DD04E1EEF0E00E94B7
S1130E1094078B01BE01EC01FB2E6F577109759588
S1130E20771F880B990B0E94F30528E132E741E311
S1130E305FE30E943A07AF2D9801AE01FF900F9136
S1130E401F91CF91DF910E94F4040C9485060E94B7
S1130E503A070C9485060E94770638F00E947E06B5
S1130E6020F0952311F00C9445060C94740611247B
S1130E700C94D1060E94960670F3959FC1F3950FCA
S1130E8050E0551F629FF001729FBB27F00DB11D0A
S1130E90639FAA27F00DB11DAA1F649F6627B00D9A
S1130EA0A11D661F829F2227B00DA11D621F739F83
S1130EB0B00DA11D621F839FA00D611D221F749F91
S1130EC03327A00D611D231F849F600D211D822FD8
S1130ED0762F6A2F11249F5750409AF0F1F08823FF
S1130EE04AF0EE0FFF1FBB1F661F771F881F91502C
S1130EF05040A9F79E3F510580F00C9445060C9490
S1130F00D1065F3FE4F3983ED4F3869577956795D1
S1130F10B795F795E7959F5FC1F7FE2B880F911D55
S1130F209695879597F90895DF93CF931F930F9321
S1130F30FF92EF92DF927B018C01689406C0DA2E57
S1130F40EF010E943A07FE01E894A591259135919D
S1130F5045915591A6F3EF010E94F404FE01970117
S1130F60A801DA9469F7DF90EF90FF900F911F9139
S1130F70CF91DF91089597FB072E16F4009407D0C4
S1130F8077FD09D00E94CF0707FC05D03EF4909569
S1130F9081959F4F0895709561957F4F0895AA1B81
S1130FA0BB1B51E107C0AA1FBB1FA617B70710F050
S1130FB0A61BB70B881F991F5A95A9F78095909582
S1130FC0BC01CD010895FB01DC018D9101908019D4
S1130FD00110D9F3990B0895FB01DC0101900D92E6
S10D0FE00020E1F70895F894FFCF14
S1130FEA5445414D20390000000000000000000073
S1130FFA202020202020202020200D0020460D0023
S113100A2020202020000D0A456E74657220746821
S113101A65206D6F7374207369676E6966696361AD
S113102A6E7420626974206F662074686520616436
S113103A647265737320746F2062652077726974B1
S113104A74656E20746F0D0A000D0A456E7465721C
S113105A20746865206C65617374207369676E69AE
S113106A666963616E7420626974206F66207468AD
S113107A65206164647265737320746F20626520ED
S113108A7772697474656E20746F0D0A000D0A45CF
S113109A6E74657220616E203820626974207661EC
S11310AA6C756520746F2073746F72650D0A000D78
S11310BA0A546865206461746120686173206265FA
S11310CA656E2073746F72656420696E204545509D
S11310DA524F4D000D0A456E74657220746865207E
S11310EA6D6F7374207369676E69666963616E7480
S11310FA20626974206F6620746865206164647272
S113110A65737320746F20626520726561640D0AC9
S113111A000D0A456E74657220746865206C6561F9
S113112A7374207369676E69666963616E74206299
S113113A6974206F662074686520616464726573DB
S113114A7320746F20626520726561640D0A000D54
S113115A0A454550524F4D20285729726974652013
S113116A6F7220285229526561642E0D0A000D0AF5
S113117A57686174206261756420726174652069BC
S113118A732070726566657261626C653F0D0A311F
S113119A3A20393630302C20323A20313434303047
S11311AA2C20333A2031393230302C20343A203250
S11311BA383830302C20353A2033383430300D0A60
S11311CA000D0A426175642072617465203D2039FC
S11311DA3630302E0D0A000D0A42617564207261A0
S11311EA7465203D2031343430300D0A000D0A4232
S11311FA6175642072617465203D20313932303062
S113120A0D0A000D0A426175642072617465203DFD
S113121A2032383830300D0A000D0A4261756420D4
S113122A72617465203D2033383430300D0A000D64
S113123A0A486F77206D616E792064617461206257
S113124A6974732061726520707265666572616281
S113125A6C653F0D0A352C20362C20372C2038207B
S113126A2C206F72203920626974730D0A000D0AEA
S113127A23206F6620446174612042697473203D9F
S113128A20350D0A000D0A23206F6620446174611B
S113129A2042697473203D20360D0A000D0A23206A
S11312AA6F6620446174612042697473203D20375B
S11312BA0D0A000D0A23206F6620446174612042DE
S11312CA697473203D20380D0A000D0A23206F66C5
S11312DA20446174612042697473203D20390D0AE7
S11312EA000D0A5768617420736F7274206F662048
S11312FA70617269747920697320707265666572A7
S113130A61626C653F0D0A284E296F20506172692B
S113131A74792C20284F2964642070617269747965
S113132A2C2028452976656E205061726974790DDE
S113133A0A000D0A506172697479203D204E6F20AB
S113134A5061726974790D0A000D0A5061726974E8
S113135A79203D204F6464205061726974790D0AC2
S113136A000D0A506172697479203D204576656ED4
S113137A205061726974790D0A000D0A486F77204A
S113138A6D616E792073746F70732062697473204F
S113139A69732070726566657261626C653F0D0AD5
S11313AA28312920626974206F7220283229206228
S11313BA6974730D0A000D0A23206F662053746F33
S11313CA702042697473203D20310D0A000D0A23EE
S11313DA206F662053746F702042697473203D2015
S11313EA320D0A000D0A5768617420506172616DEA
S11313FA657465722053686F756C64204265204178
S113140A646A75737465643F3A0D0A2842296175E2
S113141A6420726174652C202844296174612062F5
S113142A6974732C2028502961726974792E2028D2
S113143A5329746F7020626974730D0A000D0A4986
S113144A6E76616C696420436F6D6D616E642054BD
S113145A727920416761696E2E2E2E000D0A52653B
S113146A6164793A20000D0A4D656E753A20284C5C
S113147A2943442C2028412944432C202845294522
S113148A50524F4D2C202855295341525420506113
S113149A72616D65746572730D0A000D0A627920B2
S11314AA457567656E6520526F636B657920436F76
S11314BA7079726967687420323031382C20416C33
S11314CA6C20526967687473205265736572766515
S11314DA64000D0A4543452D3431322041544D658B
S11314EA6761333238502054696E79204F530000B3
S9030000FC
