:100000000C945A000C9477000C9477000C947700B1
:100010000C9477000C9477000C9477000C94770084
:100020000C9477000C9477000C9477000C94770074
:100030000C9477000C9477000C9477000C94770064
:100040000C9477000C9477000C9477000C94770054
:100050000C9477000C9477000C9477000C94770044
:100060000C9477000C9477000C9477000C94770034
:100070000C9477000C9477000C9477000C94770024
:100080000C9477000C9477000C9477000C94770014
:100090000C9477000C9477000C9477000C94770004
:1000A0000C9477000C9477000C9477000C947700F4
:1000B0000C94770011241FBECFEFD8E0DEBFCDBF78
:1000C00015E0A0E0B1E0EAE6F7E002C005900D928D
:1000D000AE3FB107D9F726E0AEEFB5E001C01D9203
:1000E000AE30B207E1F70E9484030C94B3030C9482
:1000F000000007E004B900E005B901B910E007E627
:100100001093C5000093C40008E10093C10006E00D
:100110000093C20007E800937A0000E400937C009B
:1001200000E000937B000EEF00937E000FEF009342
:100130007F0008950E94D7000FEF0AB900910106D1
:100140000BB904E005B90E94AC0000E005B90E94BB
:10015000AC000E94D10008950AEF1FEF1A95F1F745
:100160000A95D9F708950E94D7000FEF0AB90091B8
:1001700001060BB906E005B90E94AC0000E005B924
:100180000E94AC000E94D10008950E94D70000E0B8
:100190000AB945B80BB10093010605B80E94D10019
:1001A000089502E00AB908E10093C100089500E053
:1001B0000093C10008950091C00007FF08950091C9
:1001C000C600F9CF0091C00007FFFCCF0091C60028
:1001D0000093030608951091C00015FFFCCF009115
:1001E00003060093C600089507EC00937A0000917F
:1001F0007A0006FDFCCF0091780000930A0600917A
:100200007900009302060895F999FECF2091040623
:1002100010910B060091000622BD11BD00BDFA9A97
:10022000F99A0895F999FECF2091040610910B06D2
:1002300000E022BD11BDF89A00B5009303060895B1
:10024000CF93DF93EC019881992341F0219690930D
:1002500003060E94EB0099919111F9CFDF91CF91A4
:100260000895CF93DF93EC019881992341F0219673
:10027000909301060E94B30099919111F9CFDF91FB
:10028000CF91089581EE95E00E9420018AEA95E0E1
:100290000E9420018BE695E00E942001089585E7E9
:1002A00095E00E942001089584E3809301060E9456
:1002B0009A0088E0809301060E949A0082E0809371
:1002C00001060E949A0086E0809301060E949A002F
:1002D0008FE0809301060E949A0080E091E00E94E6
:1002E00031010895CF93DF93C5E0D6E08EE2898394
:1002F00080E28B831C820E94F4002091020630E091
:10030000322F222780910A06280F311DC901880F3C
:10031000991F220F331F220F331F220F331F820F0B
:10032000931FEEEFF7E0BF010E948B03262F30E30F
:10033000360F3883AC01440F551F880F991F880F63
:10034000991F880F991F840F951FBF010E948B036F
:1003500030E3360F3A8390930D0680930C068F3F5F
:1003600093401CF06F5C60930706809107068A3308
:1003700031F4E5E0F6E080E382832F5C208385E0C2
:1003800096E00E94200185E495E00E942001DF9123
:10039000CF9108958EE091E00E9420011092030613
:1003A0000E94E200809103068823D1F38093040623
:1003B00081E591E00E942001109203060E94E20074
:1003C000809103068823D1F380930B0685E991E0A1
:1003D0000E942001109203060E94E2008091030611
:1003E0008823D1F3809300060E94040187EB91E0FB
:1003F0000E94200108958CED91E00E94200110924E
:1004000003060E94E200809103068823D1F38093C3
:10041000040689E192E00E942001109203060E94E6
:10042000E200809103068823D1F380930B060E949B
:1004300012010E94EB0087EB91E00E9420010895D9
:1004400087E592E00E942001109203060E94E200DC
:10045000809103068823D1F3823729F0873731F45E
:100460000E94CA0108950E94FB0108958CE495E062
:100470000E9420010E944F0108958093FE059093F1
:10048000FF058093C4009093C500089586E792E02D
:100490000E942001109203060E94E2008091030650
:1004A0008823D1F38333E9F028F4813341F0823398
:1004B00079F032C08433F1F0853329F12DC087E61D
:1004C00090E00E943D0289EC92E00E942001089594
:1004D00084E490E00E943D028FED92E00E942001B2
:1004E000089583E390E00E943D0285EF92E00E9430
:1004F0002001089582E290E00E943D028BE093E0AB
:100500000E942001089589E190E00E943D0281E26D
:1005100093E00E94200108958CE495E00E94200160
:100520000E944F01089587E393E00E9420011092FA
:1005300003060E94E200809103068823D1F38733EB
:10054000A9F028F4853341F0863359F02DC0883363
:1005500091F08933D1F028C086E793E00E94200112
:1005600008958DE893E00E942001089584EA93E0C5
:100570000E94200108958091C20081608093C20092
:100580008BEB93E00E94200108958091C20081606E
:100590008093C2008091C10084608093C10082ED8D
:1005A00093E00E94200108958CE495E00E942001D0
:1005B0000E944F01089589EE93E00E94200110925D
:1005C00003060E94E200809103068823D1F38E3651
:1005D00029F08F3641F08536A9F40FC08AE394E004
:1005E0000E94200108958091C20081608093C20022
:1005F00081E594E00E942001089589E694E00E943C
:10060000200108958CE495E00E9420010E944F0192
:10061000089582E894E00E942001109203060E944F
:10062000E200809103068823D1F3813319F08233ED
:1006300031F00FC08EEB94E00E942001089580916C
:10064000C20088608093C20085ED94E00E94200182
:1006500008958CE495E00E9420010E944F010895C6
:100660008CEE94E00E942001109203060E94E200AA
:10067000809103068823D1F3843661F018F4823622
:1006800031F011C0803749F0833751F00CC00E941F
:10069000460208950E94930208950E94DB02089585
:1006A0000E94090308958CE495E00E9420010E94B5
:1006B0004F01089585E795E00E94200110920306FE
:1006C0000E94E200809103068823D1F3853679F0F9
:1006D00018F4813649F011C08C3619F0853751F085
:1006E0000CC00E94540108950E94720108950E9456
:1006F000200208950E94300308958CE495E00E9442
:1007000020010E944F0108950E9479000E94420139
:100710000E945A03FDCF97FB072E16F4009407D0D2
:1007200077FD09D00E949F0307FC05D03EF4909509
:1007300081959F4F0895709561957F4F0895AA1BED
:10074000BB1B51E107C0AA1FBB1FA617B70710F0BC
:10075000A61BB70B881F991F5A95A9F780959095EE
:0A076000BC01CD010895F894FFCF0D
:10076A0048656C6C6F2045434534313221000D0ACF
:10077A00456E74657220746865206D6F737420739A
:10078A0069676E69666963616E7420626974206F55
:10079A006620746865206164647265737320746F7F
:1007AA00206265207772697474656E20746F0D0A11
:1007BA00000D0A456E74657220746865206C656167
:1007CA007374207369676E69666963616E74206207
:1007DA006974206F66207468652061646472657349
:1007EA007320746F206265207772697474656E2055
:1007FA00746F0D0A000D0A456E74657220616E20D1
:10080A0038206269742076616C756520746F207374
:10081A00746F72650D0A000D0A546865206461746C
:10082A006120686173206265656E2073746F7265FA
:10083A006420696E20454550524F4D000D0A456EA1
:10084A0074657220746865206D6F737420736967AC
:10085A006E69666963616E7420626974206F6620CE
:10086A00746865206164647265737320746F2062B2
:10087A006520726561640D0A000D0A456E74657221
:10088A0020746865206C65617374207369676E698A
:10089A00666963616E7420626974206F6620746889
:1008AA0065206164647265737320746F20626520C9
:1008BA00726561640D0A000D0A454550524F4D207C
:1008CA0028572972697465206F7220285229526547
:1008DA0061642E0D0A000D0A576861742062617501
:1008EA00642072617465206973207072656665722E
:1008FA0061626C653F0D0A313A20393630302C205E
:10090A00323A2031343430302C20333A20313932E3
:10091A0030302C20343A2032383830302C20353AD6
:10092A002033383430300D0A000D0A4261756420D4
:10093A0072617465203D20393630302E0D0A000D63
:10094A000A426175642072617465203D2031343435
:10095A0030300D0A000D0A426175642072617465B7
:10096A00203D2031393230300D0A000D0A426175BE
:10097A00642072617465203D2032383830300D0AA7
:10098A00000D0A426175642072617465203D20334E
:10099A00383430300D0A000D0A486F77206D616EC9
:1009AA0079206461746120626974732061726520C0
:1009BA0070726566657261626C653F0D0A352C203E
:1009CA00362C20372C2038202C206F7220392062B8
:1009DA006974730D0A000D0A23206F66204461743E
:1009EA00612042697473203D20350D0A000D0A23E7
:1009FA00206F6620446174612042697473203D202F
:100A0A00360D0A000D0A23206F66204461746120A6
:100A1A0042697473203D20370D0A000D0A23206FA6
:100A2A006620446174612042697473203D20380D48
:100A3A000A000D0A23206F6620446174612042690E
:100A4A007473203D20390D0A000D0A57686174201D
:100A5A00736F7274206F662070617269747920698D
:100A6A00732070726566657261626C653F0D0A2853
:100A7A004E296F205061726974792C20284F29649D
:100A8A0064207061726974792C2028452976656E14
:100A9A00205061726974790D0A000D0A50617269F9
:100AAA007479203D204E6F205061726974790D0A65
:100ABA00000D0A506172697479203D204F646420E8
:100ACA005061726974790D0A000D0A506172697475
:100ADA0079203D204576656E205061726974790DE2
:100AEA000A000D0A486F77206D616E792073746F62
:100AFA007073206269747320697320707265666509
:100B0A007261626C653F0D0A28312920626974207E
:100B1A006F722028322920626974730D0A000D0A47
:100B2A0023206F662053746F702042697473203DCE
:100B3A0020310D0A000D0A23206F662053746F704E
:100B4A002042697473203D20320D0A000D0A57684D
:100B5A00617420506172616D657465722053686FAB
:100B6A00756C642042652041646A75737465643FDC
:100B7A003A0A2028422961756420726174652C2022
:100B8A0028442961746120626974732C20285029D1
:100B9A0061726974792E20285329746F70206269F2
:100BAA0074730D0A00566F6C74730D000D0A496E4A
:100BBA0076616C696420436F6D6D616E6420547256
:100BCA007920416761696E2E2E2E000D0A526561E9
:100BDA0064793A20000D0A4D656E753A20284C2931
:100BEA0043442C2028412943442C20284529455098
:100BFA00524F4D2C2028552953415254205061728E
:100C0A00616D65746572730D0A000D0A627920457B
:100C1A007567656E6520526F636B657920436F70E7
:100C2A0079726967687420323031382C20416C6CD3
:100C3A0020526967687473205265736572766564B9
:100C4A00000D0A4543452D3431322041544D656724
:0E0C5A0061333238502054696E79204F5300B8
:00000001FF
