S00E000054696E794F532E73726563D0
S11300000C945A000C9477000C9477000C947700AD
S11300100C9477000C9477000C9477000C94770080
S11300200C9477000C9477000C9477000C94770070
S11300300C9477000C9477000C9477000C94770060
S11300400C9477000C9477000C9477000C94770050
S11300500C9477000C9477000C9477000C94770040
S11300600C9477000C9477000C9477000C94770030
S11300700C9477000C9477000C9477000C94770020
S11300800C9477000C9477000C9477000C94770010
S11300900C9477000C9477000C9477000C94770000
S11300A00C9477000C9477000C9477000C947700F0
S11300B00C94770011241FBECFEFD8E0DEBFCDBF74
S11300C014E0A0E0B1E0E8EAF6E002C005900D9289
S11300D0A03BB107D9F724E0A0EBB4E001C01D9226
S11300E0AD3BB207E1F70E9423030C9452030C9436
S11300F0000007E004B900E005B901B910E007E623
S11301001093C5000093C40008E10093C10006E009
S11301100093C20007E800937A0000E400937C0097
S113012000E000937B000EEF00937E000FEF00933E
S11301307F0008950E94D7000FEF0AB90091B2041E
S11301400BB904E005B90E94AC0000E005B90E94B7
S1130150AC000E94D10008950AEF1FEF1A95F1F741
S11301600A95D9F708950E94D7000FEF0AB90091B4
S1130170B2040BB906E005B90E94AC0000E005B971
S11301800E94AC000E94D10008950E94D70000E0B4
S11301900AB945B80BB10093B20405B80E94D10066
S11301A0089502E00AB908E10093C100089500E04F
S11301B00093C10008950091C00007FF08950091C5
S11301C0C600F9CF0091C00007FFFCCF0091C60024
S11301D00093B40408951091C00015FFFCCF009162
S11301E0B4040093C600089507EC00937A000091CC
S11301F07A0006FDFCCF009178000093BA040091C8
S113020079000093B3040895F999FECF20E015E036
S113021006E422BD11BD00BDFA9AF99A0895F99930
S1130220FECF20E015E000E022BD11BDF89A00B534
S11302300093B4040895CF93DF93EC01988199233C
S113024041F021969093B4040E94EB00999191118E
S1130250F9CFDF91CF910895CF93DF93EC0198818B
S1130260992341F021969093B2040E94B30099918E
S11302709111F9CFDF91CF91089582E994E00E9422
S11302801B018BE594E00E941B018CE194E00E9429
S11302901B01089586E294E00E941B01089584E303
S11302A08093B2040E949A0088E08093B2040E9472
S11302B09A0082E08093B2040E949A0086E08093C0
S11302C0B2040E949A008FE08093B2040E949A00C4
S11302D080E091E00E942C010895CF93DF93C5EB59
S11302E0D4E08EE2898380E28B831C820E94F40036
S11302F02091B30430E0322F22278091BA04280FD2
S1130300311DC901880F991F220F331F220F331F7C
S1130310220F331F820F931FEEEFF7E0BF010E94FD
S11303202A03262F30E3360F3883AC01440F551FC0
S1130330880F991F880F991F880F991F840F951F85
S1130340BF010E942A0330E3360F3A839093BC0422
S11303508093BB048F3F93401CF06F5C6093B704A1
S11303608091B7048A3331F4E5EBF4E080E38283CF
S11303702F5C208385EB94E00E941B0186EF93E0C1
S11303800E941B01DF91CF9108958EE091E00E94BD
S11303901B018DE891E00E941B010E9404018DE87D
S11303A091E00E941B010E940F010E94EB008DE866
S11303B091E00E941B0108958093B0049093B104CE
S11303C08093C4009093C500089587E291E00E9451
S11303D01B011092B4040E94E2008091B4048823AB
S11303E0D1F38333E9F028F4813341F0823379F097
S11303F032C08433F1F0853329F12DC087E690E0D3
S11304000E94DC018AE791E00E941B01089584E4C4
S113041090E00E94DC0180E991E00E941B010895B4
S113042083E390E00E94DC0186EA91E00E941B01D4
S1130430089582E290E00E94DC018CEB91E00E943E
S11304401B01089589E190E00E94DC0182ED91E0B6
S11304500E941B0108958DEF93E00E941B010E94EE
S11304604A01089588EE91E00E941B011092B404A1
S11304700E94E2008091B4048823D1F38733A9F069
S113048028F4853341F0863359F02DC0883391F038
S11304908933D1F028C087E292E00E941B010895BD
S11304A08EE392E00E941B01089585E592E00E948C
S11304B01B0108958091C20081608093C2008CE684
S11304C092E00E941B0108958091C2008160809394
S11304D0C2008091C10084608093C10083E892E0EF
S11304E00E941B0108958DEF93E00E941B010E945E
S11304F04A0108958AE992E00E941B011092B40413
S11305000E94E2008091B4048823D1F38E3629F04E
S11305108F3641F08536A9F40FC08BEE92E00E942D
S11305201B0108958091C20081608093C20082E023
S113053093E00E941B0108958AE193E00E941B014D
S113054008958DEF93E00E941B010E944A010895D3
S113055083E393E00E941B011092B4040E94E20022
S11305608091B4048823D1F3813319F0823331F0BC
S11305700FC08FE693E00E941B0108958091C20092
S113058088608093C20086E893E00E941B0108956E
S11305908DEF93E00E941B010E944A0108958DE9AA
S11305A093E00E941B011092B4040E94E200809127
S11305B0B4048823D1F3843661F018F4823631F020
S11305C011C0803749F0833751F00CC00E94E50117
S11305D008950E94320208950E947A0208950E94AA
S11305E0A80208958DEF93E00E941B010E944A0126
S11305F0089586E294E00E941B011092B4040E94C4
S1130600E2008091B4048823D1F3853679F018F49C
S1130610813649F011C08C3619F0853751F00CC081
S11306200E944F0108950E946D0108950E94C50122
S113063008950E94CF0208958DEF93E00E941B015C
S11306400E944A0108950E9479000E943D010E947F
S1130650F902FDCF97FB072E16F4009407D077FD1F
S113066009D00E943E0307FC05D03EF49095819585
S11306709F4F0895709561957F4F0895AA1BBB1BEA
S113068051E107C0AA1FBB1FA617B70710F0A61B8E
S1130690B70B881F991F5A95A9F780959095BC01AF
S10B06A0CD010895F894FFCF89
S11306A848656C6C6F2045434534313221000D0A8E
S11306B8454550524F4D20577269746520616E64E8
S11306C820526561642E000D0A57686174206261C6
S11306D8756420726174652069732070726566653B
S11306E87261626C653F0D0A313A20393630302C1C
S11306F820323A2031343430302C20333A20313906
S11307083230302C20343A2032383830302C2035EE
S11307183A2033383430300D0A000D0A42617564CA
S11307282072617465203D20393630302E0D0A0060
S11307380D0A426175642072617465203D2031346C
S11307483430300D0A000D0A4261756420726174F8
S113075865203D2031393230300D0A000D0A4261DE
S113076875642072617465203D2032383830300D4C
S11307780A000D0A426175642072617465203D2087
S113078833383430300D0A000D0A486F77206D6114
S11307986E79206461746120626974732061726582
S11307A82070726566657261626C653F0D0A352C4E
S11307B820362C20372C2038202C206F722039200A
S11307C8626974730D0A000D0A23206F6620446160
S11307D874612042697473203D20350D0A000D0AA6
S11307E823206F6620446174612042697473203D3C
S11307F820360D0A000D0A23206F662044617461B7
S11308082042697473203D20370D0A000D0A232005
S11308186F6620446174612042697473203D2038F6
S11308280D0A000D0A23206F66204461746120427A
S1130838697473203D20390D0A000D0A57686174E4
S113084820736F7274206F662070617269747920E6
S113085869732070726566657261626C653F0D0A22
S1130868284E296F205061726974792C20284F29E9
S11308786464207061726974792C2028452976652E
S11308886E205061726974790D0A000D0A50617204
S1130898697479203D204E6F205061726974790D16
S11308A80A000D0A506172697479203D204F64640E
S11308B8205061726974790D0A000D0A50617269D9
S11308C87479203D204576656E205061726974798B
S11308D80D0A000D0A486F77206D616E79207374D4
S11308E86F7073206269747320697320707265660F
S11308F8657261626C653F0D0A283129206269744A
S1130908206F722028322920626974730D0A000D41
S11309180A23206F662053746F7020426974732011
S11309283D20310D0A000D0A23206F662053746F91
S1130938702042697473203D20320D0A000D0A5755
S113094868617420506172616D65746572205368C2
S11309586F756C642042652041646A7573746564BC
S11309683F3A0A2028422961756420726174652C13
S11309782028442961746120626974732C202850EA
S11309882961726974792E20285329746F70206242
S11309986974730D0A00566F6C74730D000D0A495F
S11309A86E76616C696420436F6D6D616E6420546A
S11309B8727920416761696E2E2E2E000D0A5265E8
S11309C86164793A20000D0A4D656E753A20284C09
S11309D82943442C2028412943442C2028452945CF
S11309E850524F4D2C2028552953415254205061C0
S11309F872616D65746572730D0A000D0A6279205F
S1130A08457567656E6520526F636B657920436F22
S1130A187079726967687420323031382C20416CDF
S1130A286C205269676874732052657365727665C1
S1130A3864000D0A4543452D3431322041544D6537
S1130A486761333238502054696E79204F5300005F
S9030000FC
