S00E000054696E794F532E73726563D0
S11300000C945A000C9477000C9477000C947700AD
S11300100C9477000C9477000C9477000C94770080
S11300200C9477000C9477000C9477000C94770070
S11300300C9477000C9477000C9477000C94770060
S11300400C9477000C9477000C9477000C94770050
S11300500C9477000C9477000C9477000C94770040
S11300600C9477000C9477000C9477000C94770030
S11300700C9477000C9477000C9477000C94770020
S11300800C9477000C9477000C9477000C94770010
S11300900C9477000C9477000C9477000C94770000
S11300A00C9477000C9477000C9477000C947700F0
S11300B00C94770011241FBECFEFD8E0DEBFCDBF74
S11300C014E0A0E0B1E0E0EAF6E002C005900D9291
S11300D0A838B107D9F724E0A8E8B4E001C01D921C
S11300E0A839B207E1F70E941F030C944E030C9445
S11300F0000007E004B900E005B901B910E007E623
S11301001093C5000093C40008E10093C10006E009
S11301100093C20007E800937A0000E400937C0097
S113012000E000937B000EEF00937E000FEF00933E
S11301307F0008950E94D7000FEF0AB900918A0446
S11301400BB904E005B90E94AC0000E005B90E94B7
S1130150AC000E94D10008950AEF1FEF1A95F1F741
S11301600A95D9F708950E94D7000FEF0AB90091B4
S11301708A040BB906E005B90E94AC0000E005B999
S11301800E94AC000E94D10008950E94D70000E0B4
S11301900AB945B80BB100938A0405B80E94D1008E
S11301A0089502E00AB908E10093C100089500E04F
S11301B00093C10008950091C00007FF08950091C5
S11301C0C600F9CF0091C00007FFFCCF0091C60024
S11301D000938C0408951091C00015FFFCCF00918A
S11301E08C040093C600089507EC00937A000091F4
S11301F07A0006FDFCCF00917800009394040091EE
S1130200790000938B040895F999FECF20E015E05E
S113021006E422BD11BD00BDFA9AF99A0895F99930
S1130220FECF20E015E000E022BD11BDF89A00B534
S113023000938C040895CF93DF93EC019881992364
S113024041F0219690938C040E94EB0099919111B6
S1130250F9CFDF91CF910895CF93DF93EC0198818B
S1130260992341F0219690938A040E94B3009991B6
S11302709111F9CFDF91CF9108958BE694E00E941C
S11302801B0184E394E00E941B0185EF93E00E942C
S11302901B0108958FEF93E00E941B01089584E3EE
S11302A080938A040E949A0088E080938A040E94C2
S11302B09A0082E080938A040E949A0086E08093E8
S11302C08A040E949A008FE080938A040E949A0014
S11302D080E091E00E942C010895CF93DF93CFE852
S11302E0D4E08EE2898380E28B831C820E94F40036
S11302F020918B0430E0322F222780919404280F20
S1130300311DC901880F991F220F331F220F331F7C
S1130310220F331F820F931FEEEFF7E0BF010E94FD
S11303202603262F30E3360F3883AC01440F551FC4
S1130330880F991F880F991F880F991F840F951F85
S1130340BF010E94260330E3360F3A83909396044C
S1130350809395048F3F93401CF06F5C60939104ED
S1130360809191048A3331F4EFE8F4E080E38283EE
S11303702F5C20838FE894E00E941B018FEC93E0B4
S11303800E941B01DF91CF9108958EE091E00E94BD
S11303901B0187E291E00E941B010E94040187E295
S11303A091E00E941B010E940F010E94EB0087E272
S11303B091E00E941B01089580938804909389041E
S11303C01092970480938D0408958AE291E00E942C
S11303D01B0110928C040E94E20080918C048823FB
S11303E0D1F3833319F128F4813341F0823391F04E
S11303F038C0843321F1853359F133C080E895E264
S11304000E94DC0180918E0490E088589E4F0E94E7
S11304101B01089580E498E30E94DC0180918E041E
S113042090E08B569E4F0E941B01089580E09BE450
S11304300E94DC0182EB91E00E941B01089580E898
S113044090E70E94DC0185EC91E00E941B01089575
S113045080E096E90E94DC0188ED91E00E941B0196
S1130460089586ED93E00E941B010E944A010895BD
S11304708BEE91E00E941B0110928C040E94E2001A
S113048080918C048823D1F38733A9F028F4853331
S113049041F0863359F023C0883391F08933A9F0B1
S11304A01EC086E292E00E941B0108958AE392E056
S11304B00E941B0108958EE492E00E941B0108959E
S11304C082E692E00E941B01089580918E0481606F
S11304D080938E0486E792E00E941B01089586EDC6
S11304E093E00E941B010E944A0108958AE892E069
S11304F00E941B0110928C040E94E20080918C04E3
S11305008823D1F38E3629F08F3641F08536A9F44D
S11305100FC087ED92E00E941B01089580918E0424
S1130520816080938E048BEE92E00E941B010895FB
S113053080E093E00E941B01089586ED93E00E9401
S11305401B010E944A01089586E193E00E941B0169
S113055010928C040E94E20080918C048823D1F3D1
S1130560813319F0823331F00FC08EE493E00E949E
S11305701B01089580918E04886080938E0482E626
S113058093E00E941B01089586ED93E00E941B01F5
S11305900E944A01089586E793E00E941B0110928D
S11305A08C040E94E20080918C048823D1F3843669
S11305B061F018F4823631F011C0803749F0833786
S11305C051F00CC00E94E50108950E94380208957C
S11305D00E94760208950E94A402089586ED93E095
S11305E00E941B010E944A0108958FEF93E00E942C
S11305F01B0110928C040E94E20080918C048823D9
S1130600D1F3853679F018F4813649F011C08C366F
S113061019F0853751F00CC00E944F0108950E94D3
S11306206D0108950E94C50108950E94CB020895AA
S113063086ED93E00E941B010E944A0108950E94E6
S113064079000E943D010E94F502FDCF97FB072E21
S113065016F4009407D077FD09D00E943A0307FCF2
S113066005D03EF4909581959F4F089570956195BE
S11306707F4F0895AA1BBB1B51E107C0AA1FBB1FD4
S1130680A617B70710F0A61BB70B881F991F5A951A
S1130690A9F780959095BC01CD010895F894FFCFFA
S11306A048656C6C6F2045434534313221000D0A96
S11306B0454550524F4D20577269746520616E64F0
S11306C020526561642E000D0A005768617420622F
S11306D06175642072617465206973207072656647
S11306E0657261626C653F0A313A20393630302CCC
S11306F020323A2031343430302C20333A2031390E
S11307003230302C20343A2032383830302C2035F6
S11307103A20333834303000426175642072617499
S113072065203D3D20393630302E0A205543535242
S113073030433A2000426175642072617465203D43
S11307403D2031343430300A205543535230433A3B
S11307502000426175642072617465203D3D203142
S11307603932303000426175642072617465203D15
S11307703D20323838303000426175642072617433
S113078065203D3D20333834303000486F77206D8C
S1130790616E79206461746120626974732061728E
S11307A0652070726566657261626C653F0A20350A
S11307B02C20362C20372C2038202C206F72203906
S11307C020626974730023206F6620446174612081
S11307D042697473203D3D20350023206F66204418
S11307E06174612042697473203D3D2036002320EA
S11307F06F6620446174612042697473203D3D201A
S1130800370023206F662044617461204269747349
S1130810203D3D20380023206F6620446174612010
S113082042697473203D3D20390057686174207318
S11308306F7274206F6620706172697479206973B5
S11308402070726566657261626C653F0A20284E8D
S1130850296F205061726974792C20284F296464AF
S1130860207061726974792C2028452976656E2080
S113087050617269747900506172697479203D3DE8
S1130880204E6F20506172697479005061726974EE
S113089079203D3D204F6464205061726974790071
S11308A0506172697479203D3D204576656E205013
S11308B0617269747900486F77206D616E79207375
S11308C0746F707320626974732069732070726529
S11308D066657261626C653F0A202831292062696D
S11308E074206F72202832292062697473002320D7
S11308F06F662053746F702042697473203D3D20ED
S1130900310023206F662053746F70204269747322
S1130910203D3D2032000D0A5768617420506172F9
S1130920616D657465722053686F756C64204265EF
S11309302041646A75737465643F3A0A2028422929
S113094061756420726174652C2028442961746186
S113095020626974732C2028502961726974792E7D
S113096020285329746F7020626974730D0A00562D
S11309706F6C74730D000D0A496E76616C696420A6
S1130980436F6D6D616E64205472792041676169B3
S11309906E2E2E2E000D0A52656164793A20000DE8
S11309A00A4D656E753A20284C2943442C20284171
S11309B02943442C202845294550524F4D2C2028AA
S11309C055295341525420506172616D65746572AA
S11309D0730D0A000D0A627920457567656E6520FE
S11309E0526F636B657920436F70797269676874BD
S11309F020323031382C20416C6C20526967687485
S1130A0073205265736572766564000D0A4543452B
S1130A102D3431322041544D6567613332385020D2
S10B0A2054696E79204F530064
S9030000FC
